:100000000C94BF030C94F7030C94F7030C94F703C0
:100010000C94F7030C94F7030C94F7030C94F70378
:100020000C94F7030C94F7030C94B02F0C948830C5
:100030000C941D1D0C94F7030C94F7030C94F70318
:100040000C94F7030C94F7030C94F7030C94F70348
:100050000C94F7030C948C2F0C94F7030C94F70377
:100060000C94F7030C94F7030C94F7030C94F70328
:100070000C94F7030C94F7030C94F7030C94F70318
:100080000C94F7030C94F7030C94F7030C94F70308
:100090000C94F7030C94F7030C94F7030C94F703F8
:1000A0000C94F7030C94F7030C94F7030501090271
:1000B000A10185020901A1000509190129081500FE
:1000C0002501950875018102050109300931158165
:1000D000257F95027508810609381581257F9501D0
:1000E00075088106050C0A38021581257F95017572
:1000F000088106C0C005010980A101850319012AF4
:10010000B700150126B700950175108100C0050CD8
:100110000901A101850419012AA002150126A002E6
:10012000950175108100C005010906A1018506052C
:100130000719E029E71500250195087501810205D9
:1001400007190029EF1500250195F07501810205B9
:10015000081901290595057501910295017503910D
:1001600001C00660FF0961A1010962150026FF00B8
:100170009520750881020963150026FF00952075FA
:10018000089102C005010906A101050719E029E748
:1001900015002501950875018102950175088101F9
:1001A0000507190029FF150026FF0095067508812F
:1001B000000508190129059505750191029501753C
:1001C000039101C009025B00030100A0FA090400C9
:1001D0000001030101000921110100012240000773
:1001E0000581030800010904010002030000000961
:1001F00021110100012222000705820320000107CE
:1002000005030320000109040200010300000009A6
:10021000211101000122B60007058403200001120C
:1002200001000200000008424B25120200010200FA
:100230000120036B0062006400360037006D006B24
:1002400000690069007200670062002000760032D9
:1002500000000010034B0042004400660061006E85
:10026000007300000004030904165C1E001F002038
:100270000021002200230024002500260027002D55
:10028000002E002A004A002B0014001A0008001556
:100290000017001C0018000C00120013002F003083
:1002A0000031004B00390004001600070009000A65
:1002B000000B000D000E000F00330034000000287A
:1002C000004E00E1001D001B000600190005001192
:1002D000001000360037003800E500000052004DE5
:1002E00000E000E300E200000000002C000000003D
:1002F00000E600000001515000000051004F0016C0
:100300005C3A003B003C003D003E003F00400041A5
:100310000042004300440045004C004A000100C276
:100320005CC35CC55CC65CC75CC85CC95CCA5C017C
:1003300000460047004800005C4B000100CB5CCC4D
:100340005C01000100010001000100010001000149
:100350000001000000DE5C4E00E100010001000130
:100360000001000100010001000100010001000185
:10037000000000A900A80001000100010000000029
:1003800000010000000000010000000100AC0000BE
:1003900000AA00AB00010001000100010001000102
:1003A0000001000100010001000100010001000145
:1003B0000001000100010001000100010001000135
:1003C0000001000100010001000100010001000125
:1003D0000001000100010001000100010001000115
:1003E0000001000100010001000000010001000106
:1003F00000010001000100010001000100010001F5
:1004000000010001000100000001000100010001E5
:1004100000010000000000010000000000010000D9
:1004200000010001000000010001000100010001C5
:1004300000010001000100010001000100010001B4
:1004400000010001000100010001000100010001A4
:100450000001000100010001000100010001000194
:100460000001000100010001000100010001000184
:100470000001000100010001000100010001000075
:100480000001000100010001000100010001000164
:100490000001000100010001000100010000000155
:1004A0000001000100010001000000000001000047
:1004B0000000000100000001000100000001000137
:1004C00000009B8B7B00AB8A7A00AA9A7900A999DD
:1004D0008900A8988800A7978700A6968600A5950A
:1004E0008500A49484003C4C5C002C4D5D002D3DA7
:1004F0005E002E3E4E0030405000314151002A3AFD
:100500004A0029394900283848002737470026364D
:100510004600253556002445550034445400AC9C13
:100520008C00AD9D8D00AE9E8E00AF9F8F00B0A061
:100530009000B1A19100324252002B3B4B01A9998E
:100540008901A8988801A7978701A6968601A59595
:100550008501A49484013C4C5C012C4D5D012D3D32
:100560005E012E3E4E012F3F4F013040500033437D
:100570005301AB8A7A0128384801273747012636CC
:1005800046012535560124455501AC9C8C01AD9D95
:100590008D01AE9E8E01AF9F8F01314151013242DC
:1005A000520133435300B2A281019B8B7B012B3B51
:1005B0004B012A3A4A0134445401B1A19101B2A23B
:1005C0008101A3938300A3938300B392820001016E
:1005D0000101010101010102020202020202020202
:1005E00003030303030303030404040404040405D2
:1005F0000505050506060606060707070707080896
:100600000808090909090A0A0A0B0B0B0C0C0C0D46
:100610000D0D0E0E0E0F0F0F1010111111121213DF
:10062000131414151516161717181819191A1A1B5A
:100630001B1C1D1D1E1E1F202021222223242425B9
:100640002626272829292A2B2C2D2D2E2F303132F2
:1006500032333435363738393A3B3C3D3E3F404102
:1006600042434445464748494A4C4D4E4F505153EA
:1006700054555658595A5B5D5E5F616264656668A1
:10068000696B6C6D6F7072737577787A7B7D7E8025
:1006900082838587888A8C8E8F91939596989A9C71
:1006A0009EA0A2A3A5A7A9ABADAFB1B3B5B7BABC85
:1006B000BEC0C2C4C6C9CBCDCFD1D4D6D8DBDDDF56
:1006C000E2E4E7E9EBEEF0F3F5F8FAFDFF000000F5
:1006D000000000000000000000000000000000001A
:1006E000000000000000000000000000000000000A
:1006F000007E0F00D4FFFFFFC7000000780000005D
:1007000000000000002A2B2800000000000000006C
:10071000000000000000000029000000002C1E3432
:1007200020212224342627252E362D3738271E1F38
:10073000202122232425263333362E37381F040563
:10074000060708090A0B0C0D0E0F101112131415D1
:10075000161718191A1B1C1D2F3130232D350405AF
:10076000060708090A0B0C0D0E0F101112131415B1
:10077000161718191A1B1C1D2F3130354C00112467
:100780001FBECFEFDAE0DEBFCDBF04B603FE18C058
:1007900080917D0690917E06A0917F06B0918006A3
:1007A0008730904BA740B04B59F410927D061092C1
:1007B0007E0610927F0610928006E0E0F8E309952D
:1007C00026E0AEE8B2E001C01D92AD37B207E1F716
:1007D00012E0A0E0B1E0E4EBF7E602C005900D9274
:1007E000AE38B107D9F70E94EB2A0C9446330C942B
:1007F0000000E82F2FE0929FE00D11248E2F8770CC
:1008000041E001C0440F8A95EAF7E695E695E69542
:1008100083E0E89FF0011124E35FF94F30E020E02E
:1008200070E05191DF011197CB01022E02C0969525
:1008300087950A94E2F7817081958527842385271F
:100840008C932F5F3F4F2330310559F70895E82FE0
:100850002FE0929FE00D11249E2F9770E695E6956C
:10086000E69583E0E89FF0011124E35FF94F50E043
:1008700040E080E0219130E0092E02C036952795B6
:100880000A94E2F721703327042E01C0220F0A9444
:10089000EAF7822B4F5F5F4F4330510559F70895B8
:1008A0008091460690914506981301C008958F5F88
:1008B0008770FACF909117019923E1F09091420649
:1008C00097FF18C0E82FE695E695E695803FF0F48F
:1008D000F0E0E057FD4F877021E030E0A90102C051
:1008E000440F551F8A95E2F7CA01809592818923AA
:1008F00082830895E2E9F2E09191891303C0DF0158
:1009000011971C9252E0E839F507B1F70895982F36
:10091000909580913D06892380933D0608958091AE
:100920003E06811110923E0608959091420692FF74
:1009300006C0282F28712830F9F4877F846093FF40
:1009400006C0282F28712831F1F4877E8461209118
:10095000430620FF06C0382F38713830D9F4877F1E
:10096000816021FF06C0282F28712831D1F4877EAD
:10097000816194FD877E0895282F24712430F9F633
:100980008B7F8860DCCF282F2471243101F78B7E88
:100990008861DDCF382F3171313019F78E7F886053
:1009A000E0CF282F2171213121F78E7E8861E1CFA0
:1009B000CF93DF93EC01803E910509F460C050F5C0
:1009C0008133910509F4A6C090F48932910509F4A8
:1009D0009AC08A9709F4A5C0C130D10509F462C054
:1009E000CE010497813A910508F055C05BC0893368
:1009F0009105F1F182389105D9F1C59709F47CC0D0
:100A0000C83AD10508F094C0C53AD10528F3A49797
:100A1000D06448C0843E910509F453C068F4823E16
:100A20009105E1F1833E910509F440C0CE01805E5D
:100A30009109089780F536C0863E910509F44CC0AF
:100A4000873E910509F44DC0811523E5920708F012
:100A50009AC0811532E5930708F000C18F3F9105D8
:100A600011F008F074C0803F910550F2D0651AC0B3
:100A7000809142068370B1F0C0EED0E013C0809147
:100A8000420680FD15C19091430690FF0BC0C3EE56
:100A9000D0E084FF07C0D0E0C0E004C080914206EF
:100AA00082FDF5CFCE01DF91CF910895809142066E
:100AB00082FD01C19091430690FDDECF84FFF2CF0D
:100AC000EACF8091430681FFEDCF80914206C7EEC9
:100AD000D0E084FDE0CFE6CF8091420683FDF7CFE2
:100AE000E1CF8091420683FDE9C09091430691FFDA
:100AF000E5CFC4EED0E0D6CF8091420685FFD2CFBD
:100B0000C9E2D0E0CFCF8091420685FFCBCFC5E3CD
:100B1000D0E0C8CF8091420686FFC4CFCAE2D0E0C1
:100B2000C1CF8091420686FFBDCFC1E3D0E0BACFEE
:100B3000CF3BD10508F07ACFC85AD0E0CC0FDD1FEB
:100B4000C15ADD4F0990D881C02DD464ABCFC115F7
:100B500081E5D80798F4C11520E5D20708F061C0F7
:100B6000C11530E2D30708F49DCFCE019054811512
:100B7000904108F090CFDF70D06A94CFDC2FCC2763
:100B8000C16FD06A8FCF811539E59307A0F5C115E4
:100B900088E5D80708F07AC0C11525E5D207C8F462
:100BA000C11534E5D30708F06CC09E0123703327CC
:100BB00081E090E002C0880F991F2A95E2F7C69560
:100BC000C69520E2C29FE0011124C82BD92BDA6818
:100BD00069CFCE0195558F3F910511F008F05BCF9D
:100BE0008C2F0E949504C82FD0E0DC2FCC27CC2777
:100BF000DF71D06257CF81153AE5930708F44BC0F7
:100C000090568115904208F046CF8D2F8F710E942B
:100C1000950490E0982F882788279F718C2BEC01F2
:100C2000E8CF9E0174E0369527957A95E1F7237019
:100C30008C2F86958695837030E2839FC0011124A6
:100C4000922BC37021E030E002C0220F331FCA95FF
:100C5000E2F7822B932BEC01DC6824CF9C012370FC
:100C6000332781E090E002C0880F991F2A95E2F7B0
:100C7000C695C69520E2C29FE0011124C82BD92B4E
:100C8000EBCFDC2FCC27C46FD06A0CCFDC2FCC2766
:100C9000C06FD06A07CF8F700E94950434E0D6955C
:100CA000C7953A95E1F7CF709C2FEC01D069FACE49
:100CB000C9E3D0E0F7CEC2EED0E0F4CEC6EED0E08D
:100CC000F1CE80E00895F894E82FE295EF70F0E01F
:100CD00041A18F7021E030E0B90102C0660F771F9B
:100CE0008A95E2F7CB01962F9095942391A392A138
:100CF000892B82A37894089580912B0680FD14C0DF
:100D000081FD14C082FD16C080912D06882381F0DC
:100D10008E3180F420E5829FC00111246EE170E0E5
:100D20000E94C031862F089584E1089588E20895D5
:100D300088E0089580E5089580912B0680FD16C017
:100D400081FD16C082FD16C080912C068823A1F07B
:100D5000883280F428E0829FC001112468E270E0AC
:100D60000E94C031862F672B39F0089582E00895E4
:100D700084E0089588E0089581E00895E0E1E80FB7
:100D8000E031E0F5F0E0E85BFC4C0C94D4310E94DB
:100D90007C0681958093310608950E947C06FACFE7
:100DA0000E947C0681958093300608950E947C06FF
:100DB000FACF0E949C068093320608950E949C06FA
:100DC0008195F9CF0E949C06819580933306089502
:100DD0000E949C06FACF845F990B21E030E001C0AD
:100DE000220F8A95EAF780912F06822B80932F0697
:100DF000089580912B06816080932B060895809141
:100E00002B068260F9CF80912B068460F5CF40914C
:100E10003006803F59F48091310687FF0DC0109253
:100E2000310641110BC010922D0608C0813F81F49C
:100E30008091310618169CF3442381F0809132068C
:100E400090913306892B09F05AC010922C06089510
:100E5000823F49F447FFF0CF10923006809131066F
:100E60008111ECCFE0CF833F19F41416ACF3E4CF3B
:100E700090913206893F29F41916F4F61092320641
:100E8000DBCF8A3F19F497FFD7CFF8CF9091330685
:100E90008B3F29F497FFD0CF10923306CDCF8C3FF4
:100EA00019F41916CCF3C8CF9CE0980F953090F444
:100EB000845F990B21E030E0B90102C0660F771F13
:100EC0008A95E2F7CB01809590912F068923809334
:100ED0002F06B2CF8D3F31F480912B068E7F809309
:100EE0002B06AACF8E3F21F480912B068D7FF7CF62
:100EF0008F3F09F0A1CF80912B068B7FF0CF089513
:100F0000AF92BF92CF92DF92EF92FF920F931F9317
:100F1000CF93DF93262FD72EE82FF0E0E353FA4F3D
:100F200071110FC06491862FE62F7E2FDF91CF9134
:100F30001F910F91FF90EF90DF90CF90BF90AF90F7
:100F40000895E72EF12CE49186E0689F800111243A
:100F5000CFEFD0E0C801BE010E94AC31AB0130E060
:100F6000220F331F65E5649FC001659F900D11241A
:100F7000281B390B922F990F920F9E012E193F09B2
:100F8000E29FD001E39FB00D11246B2FD99E9001F9
:100F90001124232F33276E01C21AD30A9601E29F30
:100FA0006001E39FD00C11248D2D5E01A91AB108B8
:100FB000AE9C9001AF9C300DBE9C300D1124232FB0
:100FC0003327C21BD30BEC9F9001ED9F300D1124F2
:100FD00043305105C1F00C3F93E0190768F44130EC
:100FE0005105A9F042305105B1F00F3F110508F04D
:100FF0009CCF8B2F632F99CF4430510579F0463029
:101000005105B9F392CF6D2D8E2FEB2F8ECF6E2F12
:10101000ED2D8B2F8ACF832F6E2FF7CF8E2FE32FBF
:1010200084CF9C0190E080E0269F812D369F800D2B
:10103000911D112408959C018230910508F40895B2
:101040009FEF213E8EE1380740F4C90145E09695B7
:1010500087954A95E1F798E0980F61E0E62FE90F50
:10106000FF27FF1FAF0155954795842F449FF0013F
:10107000459FF00DF00D11242E173F0738F49FEF18
:10108000940F961758F78FEF860F08954F3FE9F3A7
:1010900061E0640FF6CF409107015091080125E00F
:1010A00038E0429FC001439F900D529F900D112444
:1010B000875E994C9093080180930701890F0895EA
:1010C000982FE82F96FDE0952E2F2F7096FD2F5F1D
:1010D000E695E695E695E670F0E0E15DFE4F8181EC
:1010E000829F802D212D112482958F702295207F43
:1010F000822B2081820F97FD819580580895FC01F5
:101100009B01009719F4832F80780895AC0197FF15
:1011100004C044275527481B590BB901640F751F9C
:1011200037FD0FC0241B350BC901A5E0880F991F9F
:10113000AA95E1F70E94C03180E2861BF7FD8195F8
:101140000895CB0165E0880F991F6A95E1F7BA0110
:10115000621B730B0E94C03180E6EFCF1F93172FE5
:10116000922FE42FF0E0EE0FFF1FEE57FE4F20818D
:10117000322F24EE329F312D1124472F50E0232FA0
:1011800030E0245E3F4F291B310937FF03C0319502
:101190002195310993E0220F331F9A95E1F7421B05
:1011A000530B57FD40E0742F719F712D11241F9137
:1011B00008951F93182F822FE42FF0E0EE0FFF1FEA
:1011C000EE57FE4F2081322F24EE329F312D112415
:1011D000412F50E0232F30E0245E3F4F281B310980
:1011E00037FF03C031952195310983E0220F331F6A
:1011F0008A95E1F7CA01821B930B9C0197FD20E0C1
:10120000219F212D1124822F1F9108950F931F9349
:10121000CF93DF93D62F172FC82FBA01C901212FE3
:10122000201B022F0E947F08982F990F990F782F6B
:10123000791B700F719F712D11246D2F8C2FDF91F1
:10124000CF911F910F9108950F931F93CF93DF9329
:10125000D62FC72F182FBA01C901212F201B022F0B
:101260000E947F08982F990F990F282F291B200F74
:10127000219F212D11246D2F7C2F822FDF91CF9163
:101280001F910F910895EF920F931F93CF93DF93C8
:10129000D62F172FC82FBA01C9010E19010F0E94AE
:1012A0007F08702F781B719F712D11246D2F8C2F4B
:1012B000DF91CF911F910F91EF900895EF920F93CF
:1012C0001F93CF93DF93D62FC72F182FBA01C901D1
:1012D0000E19010F0E947F08081B019F012D112488
:1012E0006D2F7C2F802FDF91CF911F910F91EF9069
:1012F0000895622F0895E42FF0E0EE0FFF1FEE57E0
:10130000FE4F6081621B0895E42FF0E0EE0FFF1F97
:10131000ED57FE4F6081621B0895322F50E0FA01B5
:10132000EE0FFF1FED57FE4F9081905297FD919564
:10133000440F551FFA01EE57FE4F2081231B330B3C
:10134000290F311D97FD3A95620F0895EF920F9383
:101350001F9393E0099F80011124159507956E2D29
:10136000600F1F910F91EF9008950F93CF93DF932C
:10137000D72FC82FB90147FD419528E330E0241B42
:10138000310947FD3395229FA001239F500D500D39
:101390001124669FC001679F900D900D1124840F4A
:1013A000951F0E941B08982F990F692F680F600FD7
:1013B0007D2F8C2FDF91CF910F9108950F93CF93B5
:1013C000DF93D72FC82FBA01C9010E947F08682F69
:1013D000600F7D2F8C2FDF91CF910F910895EF92A9
:1013E0000F93CF93DF93D72FC82FBA01C9010E19DE
:1013F0000E947F08602F681B7D2F8C2FDF91CF917B
:101400000F91EF9008950F931F93522F10E0F80162
:10141000EE0FFF1FED57FE4FA081A052BB0B9D01A9
:101420005203F001539FF00D1124000F111FD8013A
:10143000AE57BE4F2C912057330B4203D001439F30
:10144000B00D11249F012A0F3B1F37FF02C0215806
:101450003F4F220F232F221F330B620F1F910F913B
:1014600008950F931F93522F10E0F801EE0FFF1F06
:10147000ED57FE4FA081A052BB0B9D015203F0011E
:10148000539FF00D1124000F111FD801AE57BE4F0E
:101490002C912057330B4203D001439FB00D1124F0
:1014A0009F012A0F3B1F37FF02C0215C3F4F96E090
:1014B000359527959A95E1F7620F1F910F91089541
:1014C0000F931F93A42F10E0F801EE0FFF1FEE57AC
:1014D000FE4F9081905797FD9195000F111FF801D5
:1014E000ED57FE4F00810052110B2003A001219FF8
:1014F000500D112428E330E0291B310997FD339565
:101500001A2F1203F001139FF00D11244E0F5F1FCD
:101510009A01220F331F240F351F37FF02C02158B5
:101520003F4F220F232F221F330B620F1F910F916A
:1015300008950F931F93CF93DF938B01D82FC42F60
:10154000822F0E946008EC2FF0E0EE0FFF1FEE5795
:10155000FE4F90819058980F97FD9195990F692FA4
:101560002CE0629F612D1124600F712F8D2FDF9170
:10157000CF911F910F910895E42FF0E0EE0FFF1F20
:10158000EE57FE4F9081921B97FD9195292F38E1E0
:10159000239F212D1124620F0895CF93DF9300D054
:1015A00000D0CDB7DEB720913B0630E1230F08F421
:1015B0002FEF60E1822F90E00E941108BC0188EBC0
:1015C0009BE00E94AC31B0E0A0E0CD010F900F9005
:1015D0000F900F90DF91CF9108954095282F429F53
:1015E000412D1124842F089522E8241B08F420E0C3
:1015F000620F0895EF92FF920F93282FC70135E0F5
:10160000039F800D911D11248F3F910519F010F05B
:101610008FEF90E08095382F230F08F42FEF822F63
:101620000F91FF90EF900895EF92FF920F93E00ECD
:10163000F11CF90137FF03C0F195E195F10924E0B0
:10164000EE0FFF1F2A95E1F7EF3FF10519F014F0B7
:10165000EFEFF0E09A0157FF03C031952195310972
:1016600094E0220F331F9A95E1F72E173F070CF4F1
:10167000F901EE0DFF1DEF3FF10519F010F0EFEF4E
:10168000F0E0E095282F3E2F230F08F42FEF822F54
:101690000F91FF90EF900895EF92FF920F93972F85
:1016A000FA01B9019701093430F4201B31092F3FA9
:1016B000310519F010F02FEF30E03896719740F0B7
:1016C000AB01485F5F4F4131510510F02FEF30E023
:1016D0002095382F320F08F43FEF77FF02C06D5F7F
:1016E0007F4F759567957595679580913806680F5A
:1016F000792F832F0F91FF90EF900895EF92FF9233
:101700000F93282FC701801B91098F3F910519F076
:1017100010F08FEF90E0382F3095230F08F42FEF63
:10172000680F822F0F91FF90EF900895EF92FF9234
:101730000F93282FC701801B91098F3F910519F046
:1017400010F08FEF90E08095382F230F08F42FEFE3
:10175000822F0F91FF90EF9008950C942B1B0C9407
:10176000731BE7E3F6E0248130E1230F08F42FEF49
:101770002483809136068160809336060895E7E3DE
:10178000F6E0248130E1231B08F420E024838091DB
:1017900036068160809336060895FA018111099416
:1017A000FB01FDCFE091EB05F091EC05309721F0C6
:1017B0000190F081E02D099480E008952091E402E9
:1017C0003091E5022817390771F09093E502809374
:1017D000E402E091EB05F091EC05309721F00680F2
:1017E000F781E02D099408952091E2023091E302FF
:1017F0002817390771F09093E3028093E202E09199
:10180000EB05F091EC05309721F00084F185E02D97
:10181000099408959C01809117018823C1F080915B
:10182000420687FF14C0862F869586958695603F71
:10183000F8F4F901E80FF11D677021E030E001C014
:10184000220F6A95EAF78281822B82830895F9013B
:1018500032968FEF90E04191641751F08F3F19F469
:10186000411101C0892F9F5F9630A9F78F3F09F47E
:101870000895280F311D87FD3A95F9016283089577
:10188000CF93DF9300D000D0CDB7DEB78FB7F894F9
:1018900020914604309147044091480450914904F6
:1018A00029833A834B835C838FBF69817A818B81E3
:1018B0009C810F900F900F900F90DF91CF91089522
:1018C0008091E10208950895FC01CB012091BC02B2
:1018D0003091BD022617370790F0009729F4209128
:1018E000E8002E772093E80040E0009751F4411182
:1018F00008C08091E80082FF31C080E00895C901EE
:10190000F3CF2091D3052223A9F12530A9F120910D
:10191000E80023FD2DC02091E80022FDEACF2091B0
:10192000E80020FFE2CF3091F3002091F200009711
:1019300019F02830310558F041E02830310509F020
:1019400040E02091E8002E772093E800CECF41912F
:101950004093F10001972F5F3F4FE9CF8091D3056E
:10196000882341F0853041F08091E80083FFC1CFAA
:1019700081E0089582E0089583E008958091B602A1
:1019800087FF13C08091E80082FF06C08091E800C5
:101990008B778093E80004C08091D3058111F2CF4A
:1019A00008958091D3058823D9F38091E80080FFC2
:1019B000F8CF8091E8008E77ECCF2091E400309151
:1019C000E50095E6A9012091EC00822F817020FFAF
:1019D00006C08091E80080FF06C080E00895209155
:1019E000E80022FD1AC08091D305882389F0853054
:1019F00089F08091EB0085FD0FC02091E4003091CB
:101A0000E50042175307F9F29150E1F684E008959A
:101A100082E0089583E0089581E00895E8EDF0E024
:101A200080818E7F80831092E2001092DA00109203
:101A3000E100A0EEB0E08C9181608C9380818F7783
:101A4000808319BCA7EDB0E08C918E7F8C93808150
:101A50008F7E80831092B50208959091370693701F
:101A600059F0809338066093390640933A06809186
:101A700036068160809336060895E7E3F6E08181BB
:101A800090E04381628108960C942D0DE7E3F6E027
:101A90008181438162818850990B0C942D0DE7E37D
:101AA000F6E0628120E1620F08F46FEF81814381EB
:101AB00090E00C942D0DE7E3F6E0628120E1621BDB
:101AC00008F460E08181438190E00C942D0DE7E300
:101AD000F6E0438120E1420F08F44FEF81816281FB
:101AE00090E00C942D0DE7E3F6E0438120E1421BEA
:101AF00008F440E08181628190E00C942D0DEF921A
:101B0000FF920F931F93CF937C018B010E94DD0CFA
:101B1000C82F811117C08091E80085FD0BC080910E
:101B2000E8008E778093E8000E94DD0C882399F30B
:101B3000C82F08C0F70181917F018093F100015007
:101B4000110949F78C2FCF911F910F91FF90EF90C2
:101B50000895AF92BF92CF92DF92EF92FF920F93D0
:101B60001F93CF93DF935C01C0910401CC0FCC0F86
:101B700014E01C0FC12E143410F033E4C32E609116
:101B80003B06669580916A0590916B050E9411084D
:101B9000D82ED0E0CE01880F991F9C012E573E4FC2
:101BA0007901CC1578F081E0133408F080E0DF9102
:101BB000CF911F910F91FF90EF90DF90CF90BF904A
:101BC000AF900895FE01E85FFD4F8081909105017F
:101BD0008923C1F0F70121812052330B4081405706
:101BE000550B609138067091390680913A060D2D9B
:101BF000F50109950E948007462F672F282FCE01F7
:101C00000E94AD0BF2E0EF0EF11C2196CACF5F925D
:101C10006F927F928F929F92AF92BF92CF92DF92FC
:101C2000EF92FF920F931F93CF93DF934C01C091DC
:101C30000401CC0FCC0F14E01C0F512E143410F003
:101C400033E4532E60913B06669580916A0590912E
:101C50006B050E941108F82ED0E0CE01880F991F65
:101C60009C012E573E4F6901C515A0F081E0133449
:101C700008F080E0DF91CF911F910F91FF90EF90DE
:101C8000DF90CF90BF90AF909F908F907F906F909C
:101C90005F900895FE01E85FFD4F808190910501FE
:101CA000892379F1F6018081282F2057330B5901C0
:101CB0008181E82FE052FF0B3F01AA9C9001AB9C71
:101CC000300D300D1124EE9FC001EF9F900D900D4F
:101CD0001124820F931F0E941B08082F6091380661
:101CE0007091390680913A06EF2C9301A501F40119
:101CF00009950E948007462F672F282FCE010E944A
:101D0000AD0BF2E0CF0ED11C2196AECFBF92CF9299
:101D1000DF92EF92FF920F931F93CF93DF9300D048
:101D200000D00F92CDB7DEB76C0180910401880F0F
:101D3000880F8B8394E0F92EF80EBF2C93E49F1547
:101D400010F483E4B82E60913B0666956695809109
:101D50006A0590916B050E941108182F80E4810F8D
:101D60000E94600880588983812F0E9460088058F3
:101D70008A83FB81EF2FF0E0FD83EC839C819B1530
:101D8000A0F081E0E2E4EF1508F480E00F900F90FE
:101D90000F900F900F90DF91CF911F910F91FF90B7
:101DA000EF90DF90CF90BF900895EC81FD81E85FC8
:101DB000FD4F8081909105018923A9F0609138063B
:101DC0007091390680913A06E12E0C812A81498171
:101DD000F60109950E948007462F672F282F8C81D6
:101DE0009D810E94AD0B8C819D8101969D838C838A
:101DF000C5CFDF92EF92FF920F931F93CF93DF93A4
:101E00007C01C0910401CC0FCC0F14E01C0FD12E2B
:101E1000143410F083E4D82E60913B0666956695E5
:101E200021E0620F08F46FEF80916A0590916B05D5
:101E30000E941108082FD0E0CD1560F081E0133426
:101E400008F080E0DF91CF911F910F91FF90EF900C
:101E5000DF900895FE01E85FFD4F808190910501BC
:101E6000892391F0609138067091390680913A0685
:101E7000202F4C2FF70109950E948007462F672FCE
:101E8000282FCE010E94AD0B2196D6CFAF92BF92E4
:101E9000CF92DF92EF92FF920F931F93CF93DF9336
:101EA0008C01C0910401CC0FCC0F24E0D22EDC0EAB
:101EB000CD2C23E42D1510F493E4C92E20913B067C
:101EC00031E0230F08F42FEF30E050E040E06FEFF7
:101ED0007FEF80E090E00E94E3327901D0E0B22E03
:101EE000AF2C2C2FCC1580F081E0F2E4FD1508F426
:101EF00080E0DF91CF911F910F91FF90EF90DF90E5
:101F0000CF90BF90AF900895FE01E85FFD4F8081B4
:101F100090910501892319F140916E054150042EDD
:101F2000000C550B47FF1DC08B2D9A2D60913B0671
:101F300021E0620F08F46FEF0E941108AC0160917C
:101F400038067091390680913A06F80109950E9489
:101F50008007462F672F282FCE010E94AD0B2196B8
:101F6000C0CFFA01E259FA4F818982130AC0FA01FF
:101F7000EE0FFF1FE259FA4F818D928D8E159F054E
:101F8000A8F241505109CECF2F923F924F925F92CB
:101F90006F927F928F929F92AF92BF92CF92DF9279
:101FA000EF92FF920F931F93CF93DF93CDB7DEB7DE
:101FB00029970FB6F894DEBF0FBECDBF282E6A83D7
:101FC0007B8320910401220F220F2E832C5F298313
:101FD0002C83243410F033E43C8380916E058D8390
:101FE000FE81EF2FF0E0F987E887CF01880F991F76
:101FF0009C012E573E4F6901822D90E0FC013196E5
:10200000FF83EE838C8198859817F0F081E0E98159
:10201000E33408F080E029960FB6F894DEBF0FBED7
:10202000CDBFDF91CF911F910F91FF90EF90DF9087
:10203000CF90BF90AF909F908F907F906F905F9068
:102040004F903F902F900895E885F985E85FFD4F08
:102050008081909105018923F1F0409038065090DD
:1020600039062E813F8122593A4F3901322C10E036
:10207000FD813F16D0F020913A06129F112D1124B8
:10208000B201812F0E948007462F672F282F888555
:1020900099850E94AD0B288539852F5F3F4F398781
:1020A000288732E0C30ED11CADCFF30181913F01EF
:1020B000F601A080A81ABB088180F3018781881AE5
:1020C0009908AA9C9001AB9C300D300D1124889C7E
:1020D000C001899C900D900D1124820F931F0E94C6
:1020E0001B08082F60913B0621E0620F08F46FEF98
:1020F000F301EE0FFF1FEE56F540858996890E9489
:1021000011087C019401A501B201812FEA81FB81B4
:1021100009952B01182F3394ABCF9091370693700C
:10212000A1F0882399F08B3298F48F73880F880F71
:10213000909137069370892B80933706109218017F
:1021400080913606816080933606089581E0EECF57
:102150008AE2ECCF80913706869586958F5F8B3229
:1021600008F081E00C948D10909137069695969525
:102170008FEF890F913009F48AE20C948D10982F1B
:102180009093E900242F762F50E0891731F0709159
:10219000EC002091ED005091F00021FD06C09F5F02
:1021A000973071F78093E90008953091EB003E7FFE
:1021B0003093EB003091ED003D7F3093ED00309196
:1021C000EB0031603093EB007093EC002093ED0056
:1021D0005093F0002091EE0027FDE1CF0895CF92BB
:1021E000DF92EF92FF920F931F93CF93DF93C8ED8F
:1021F000D0E088818F7E8883E7EDF0E08081816088
:10220000808384E082BF81E08093B50288818E7FE5
:10221000888302EE10E0F80110821092DA0081EE5D
:10222000C82ED12CF601108288818F77888388810F
:102230008068888388818F7D888319BC1092D3053C
:102240001092B402109299051092B30290EEE92E0A
:10225000F12CF70180818B7F808388818160888366
:1022600042E060E080E00E94BF10F60180818E7F36
:102270008083F80180818160808380818860808391
:10228000F70180818E7F8083888180618883DF91E0
:10229000CF911F910F91FF90EF90DF90CF90089515
:1022A00081E08093E00080E28093D8001092C90022
:1022B0008FE19EE40197F1F700C0000087E090EB0A
:1022C000DC0180937D0690937E06A0937F06B093F9
:1022D000800688E19CE00FB6F894A8958093600092
:1022E0000FBE90936000FFCFCF93DF93D82FC92FFD
:1022F000809117018823C1F18091420687FF34C085
:1023000060E284E08093E9008FEF9091E8008150D3
:1023100095FD06C095ED9A95F1F700008111F5CF76
:102320008091E80085FF1DC08091170170E050E0AA
:1023300040E0811104C050E040E068E070E08D2F83
:102340009C2F0E947F0D8091E8008E778093E8009B
:1023500080E2ED2FFC2FA1ECB2E001900D928A9566
:10236000E1F7DF91CF91089568E081E0CBCF24E0E1
:102370002093E9002FEF3091E800215035FD06C091
:1023800035ED3A95F1F700002111F5CF2091E800E5
:1023900025FF0BC050E040E066E070E00E947F0D3A
:1023A0008091E8008E778093E80008958093BE02C4
:1023B0007093C0026093BF028091D3058430F9F41A
:1023C0008093E9008FEF9091E800815095FD06C061
:1023D00095ED9A95F1F700008111F5CF8091E80015
:1023E00085FF0DC050E040E063E070E08EEB92E0CE
:1023F0000E947F0D8091E8008E778093E800089519
:10240000BC0183E00C94D611BC0184E00C94D6117D
:102410004F925F926F927F928F929F92AF92BF92F4
:10242000CF92DF92EF92FF920F931F93CF93DF93A0
:1024300010E000E036E9632E712CE801CC0FDD1FBF
:1024400058011CC0F60185909490692DC7010E9427
:10245000BF32682DC70101960E94BF3222E0C20E32
:10246000D11C32E0E30EF11C4E145F0459F76E9656
:102470008FE0A80EB11CC615D70581F0C501880FE5
:10248000991F9C0127593D4F69017E0137E2E30EF8
:10249000F11C2E0185E4480E511CD4CF3E0126E9E3
:1024A000620E711C055B1F4F0C3231E0130729F6D9
:1024B000DF91CF911F910F91FF90EF90DF90CF9020
:1024C000BF90AF909F908F907F906F905F904F9054
:1024D0000895CF93C82F6FEF811162E283E290E0FD
:1024E0000E94BF326FEFC11164E084E290E00E946D
:1024F000BF326FEFC11165E285E290E0CF910C949D
:10250000BF32CF93DF93CFE7D2E060E0CE010E94ED
:10251000BF322196C11584E0D807B9F7DF91CF917A
:10252000089580E00E94691260E086E290E00E94D7
:10253000BF320E9408120E94811281E00C9469123D
:10254000CF9384E090E00E94A132C82F82E290E015
:102550000E94A132982F8C2FCF91089583E290E0B2
:102560000E94A132823289F484E290E00E94A1327A
:10257000843059F485E290E00E94A13291E08532E6
:1025800009F090E0892F8170089580E0FCCF0F93CF
:102590001F93CF93DF93C42FD0E0CC0FDD1F2EE12C
:1025A000629FC00DD11D112436E9839FC00DD11D3E
:1025B0001124CE0187960E94A132082F10E0102F1F
:1025C0000027CE0188960E94A1329801282BC901CC
:1025D000DF91CF911F910F910895462F672F84307F
:1025E00030F4753020F44F3010F40C94C71290E0A2
:1025F00080E00895DF92EF92FF920F931F93CF93A5
:10260000DF937C010091400680913F06082BC7E0D4
:10261000D0E010E0DC2EC8010C2E02C09595879505
:102620000A94E2F780FD0CC02197A0F7D12C8D2DE4
:10263000DF91CF911F910F91FF90EF90DF90089560
:10264000B7018C2F0E94ED120E94D804019761F30C
:10265000EECF0F931F93CF93FC01828100811181F4
:10266000882389F0662379F0C8010E94FA12C82FE6
:10267000682FC8010E94F903B8018C2FCF911F91D8
:102680000F910C94ED12C8010E942704C82FF4CFBB
:10269000CF93DF93D82FC92F0E94FA126D2F7C2F72
:1026A0000E94ED12DF91CF910C94D8040E94481340
:1026B000282F92959F70963091F060F4925F9F70F2
:1026C000923030F481E0203F81F030F4283E30F049
:1026D00080E008959A5FF3CF243FD1F7089581E019
:1026E000283EE0F3213FA1F7F9CF089580913D0600
:1026F00090914406892B8093900290913E069923F5
:10270000A1F0892B80939002809117018823D9F141
:102710008091420687FF37C08EE1E2E9F2E090E067
:10272000815098F591110E948F0440E250E06DEEC7
:1027300075E080E992E00E946232892B59F180E2D3
:10274000E0E9F2E0ADEEB5E001900D928A95E1F797
:10275000E091EB05F091EC053097E1F080911701E5
:10276000882359F08091420687FF07C0809190022C
:102770008093910286E0809390020280F381E02DA5
:1027800080E992E0099486E0C8CF2191222341F2AA
:102790009F5FC6CF0895882339F090913D06892B1D
:1027A00080933D060C9476130895882321F00E94AF
:1027B00087040C947613089569EE7EEF90E080E034
:1027C0000E94DD3260E082E090E00E94BF3260E073
:1027D00083E090E00E94BF3210923F0660E084E008
:1027E00090E00E94BF3260E082E290E00E94BF323F
:1027F00060E085E090E00E94BF3260E086E090E01B
:102800000E94BF326FEF87E090E00E94BF3240E04D
:1028100050E0BA0188E090E00E94D13260E08DE0A3
:1028200090E00E94BF3240E050E0BA0188E190E0C1
:102830000E94D13260E087E190E00E94BF3240E028
:1028400050E0BA018CE190E00E94D13270E060E08B
:1028500080E290E00E94DD3240E050E0BA0188E181
:1028600090E00E94D13280E00E9469120E94911291
:1028700040E050E0BA018FE090E00E94D13240E0A9
:1028800050E0BA0183E190E00C94D13290E080E016
:102890000E94A932893E9E4F11F40C94AE1280E042
:1028A0000895E7E3F6E081E3808380911901909138
:1028B0001A01A0911B0181839283A3838FE78483F4
:1028C0008FEF858346E050E06CE170E0CF010E941D
:1028D000AF32109236060895DF92EF92FF920F9377
:1028E0001F93CF93DF93EC01FC01E85FFD4F8081E4
:1028F00090910501892381F1D090390600913A0623
:1029000010913806E12EF12C0E944932282FC70180
:102910008C549F4F68E671E00E94C0318E199F0968
:1029200097FD039695958795959587952370612FCB
:10293000289F600D11247D2D802F0E948007462F37
:10294000672F282FCE01DF91CF911F910F91FF901C
:10295000EF90DF900C94AD0BDF91CF911F910F9111
:10296000FF90EF90DF9008951F93CF93DF93EC01DA
:10297000FC01E85FFD4F8081909105018923C9F03A
:102980000E944932182F0E944932782F7F7720E821
:10299000720F08F47FEF612F80913A060E94800742
:1029A000462F672F282FCE01DF91CF911F910C94D6
:1029B000AD0BDF91CF911F9108955F926F927F923F
:1029C0008F929F92AF92BF92CF92DF92EF92FF923F
:1029D0000F931F93CF93DF9300D000D00F92CDB70A
:1029E000DEB7182F80911601811323C0909137060E
:1029F00093702091150130E081E09217130609F4DD
:102A000080E081708093060180913C0690910501E1
:102A1000981739F08093050140E060E080E00E9463
:102A2000AF0B1B3260F4E12FF0E0E85AFC4C0C9441
:102A3000D43181E0E6CF80910601811102C01D8270
:102A4000CFC140E060E080E00E94AF0BF8CF209162
:102A50000401220F220F2983022F0C5FC02E0434A1
:102A600010F063E4C62E60913806709139068091AB
:102A70003A060E948007F62EE72ED82E5981452F60
:102A800050E05A83498399819C1530F0E1E0ED8351
:102A9000033408F4A5C1D3CFE981FA81E85FFD4F83
:102AA000808190910501892339F02D2D4F2D6E2DB8
:102AB00089819A810E94AD0B89819A8101969A83BE
:102AC0008983E1CFF0910401FF0FFF0FF9830F2FEE
:102AD0000C5F902E043410F053E4952E20913806AC
:102AE0002D83B0903906C0903A06622F7B2D8C2D35
:102AF0000E948007F62EE72ED82E80913B066D812E
:102B0000680F7B2D8C2D0E948007C62EB72EA82E15
:102B10005981452F50E05A8349839981991508F0CE
:102B2000B5CFE981FA81E85FFD4F90818091050181
:102B3000892361F02A2D4C2D6B2D90FD03C02D2D86
:102B40004F2D6E2D89819A810E94AD0B89819A81CA
:102B500001969A838983E1CFF0910401FF0FFF0F63
:102B6000F9830F2F0C5FE02E043410F043E4E42EC1
:102B7000D0903906C0903A0620913B0630E4F32EFF
:102B80003F2D329F312D1124F32E5981452F50E0D6
:102B90005A83498399819E1508F078CFE981FA819B
:102BA000E85FFD4F8081909105018923C9F0E9819B
:102BB000FA81EE0FFF1FED57FE4F808182958F70D7
:102BC000609138068F9D600D11247D2D8C2D0E9403
:102BD0008007462F672F282F89819A810E94AD0B8D
:102BE00089819A8101969A838983D4CFF0910401D7
:102BF000FF0FFF0FF9830F2F0C5FE02E043410F04E
:102C000093E4E92ED0903906C0903A0620913B0615
:102C100080E4F82E3F2D329F312D1124F32E59815F
:102C2000452F50E05A83498399819E1508F02ECF95
:102C3000E981FA81E85FFD4F808190910501892348
:102C4000E9F0E981FA81EE0FFF1FEE57FE4F808118
:102C5000F89EC0011124B5E095958795BA95E1F7E6
:102C600060913806680F7D2D8C2D0E948007462FBD
:102C7000672F282F89819A810E94AD0B89819A81C3
:102C800001969A838983D0CFF0910401FF0FFF0F43
:102C9000F9830F2F0C5FC02E043410F0E3E4CE2E26
:102CA000F0903806209139062D83E0903A06609125
:102CB0003B0666956695669580916A0590916B05D1
:102CC0000E9411080E946008805887FD8195880F36
:102CD000282F3E2D239F212D11246F2D7D81822FA2
:102CE0000E948007F62EE72ED82E5981452F50E0FE
:102CF0005A83498399819C1508F0C8CEE981FA81ED
:102D0000E85FFD4F808190910501892339F02D2DD9
:102D10004F2D6E2D89819A810E94AD0B89819A81F8
:102D200001969A838983E6CF8EEA98E00E94F90E95
:102D300007C089ED98E0FACF86E099E00E94A90DDE
:102D40008D834EC084E299E0F9CF83E499E00E943C
:102D5000070EF6CF8EE599E0FACF89E799E0E6CF46
:102D60008BE799E0E3CF84E899E0E0CF8DE899E044
:102D7000DDCF86EA99E0EBCF85EB99E0DFCF8EEDF2
:102D800099E0DCCF8FEE99E0E2CF83E09AE00E94F9
:102D9000860ED6CF81E39AE0FACF80E69AE0F7CFAD
:102DA000F0910601FD83F11144C060913B0620E1E2
:102DB000620F08F46FEF80916A0590916B050E9495
:102DC00011086AE070E00E94AC31892B09F037CE1F
:102DD0000E94493263E470E00E94C0310E946C148A
:102DE000809104018F5F809304014D8141110CC0DB
:102DF00082E08093180180910601811105C01111B4
:102E000003C083E0809318010F900F900F900F90F4
:102E10000F90DF91CF911F910F91FF90EF90DF9076
:102E2000CF90BF90AF909F908F907F906F905F906A
:102E3000089520910401220F220F2983022F0C5F95
:102E4000802F043408F083E45981452F50E05A83E1
:102E50004983E82EF12CE981FA81EE15FF051CF07B
:102E6000F1E0FD8315CE89819A810E946C148981DD
:102E70009A8101969A838983EECF209106012D8352
:102E800021111CC060913B0620E1620F08F46FEF36
:102E900080916A0590916B050E94110865E070E0D1
:102EA0000E94AC31892B09F0CACD0E94493263E4FB
:102EB00070E00E94C0310E94B41492CF309104019E
:102EC000330F330F3983032F0C5F802F043408F046
:102ED00083E45981452F50E05A834983E82EF12C31
:102EE000E981FA81EE15FF050CF0BACF89819A814C
:102EF0000E94B41489819A8101969A838983F0CFC4
:102F000020910401220F220F2983022F0C5FC02E73
:102F1000043410F073E4C72EE0903906F0903A06BE
:102F2000309138063D8360913B06669566956695BF
:102F300080916A0590916B050E9411080E946008BB
:102F400090E8980F97FD9195990F692F3CE0639F4A
:102F5000612D11244D81640F7E2D8F2D0E948007DD
:102F6000F62EE72ED82E9981892F90E09A838983B7
:102F7000F981FC1518F021E02D838ACDE981FA81D1
:102F8000E85FFD4F808190910501892339F02D2D57
:102F90004F2D6E2D89819A810E94AD0BE981FA81B6
:102FA0003196FA83E983E4CF89E99AE0BFCE8CEBCE
:102FB0009AE0BCCE40914A0450914B0460914C047D
:102FC00070914D0480916A0590916B05A0916C05FC
:102FD000B0916D0584179507A607B70708F42FCDA4
:102FE0000E944B08082F0E944B0893E4891BF0F7BE
:102FF000890F482F50E05A834983FA01E85FFD4F5B
:10300000808190910501892309F43BC220E040E0D2
:1030100060E001FD13C00E944B08082F0E944B087E
:10302000782F76952FE7720F08F47FEF602F80914D
:103030003A060E948007462F672F282F89819A81A0
:103040000E94AD0B20913B0630E1230F08F42FEFD7
:1030500060E1822F90E00E941108BC0184EF91E0B2
:103060000E94AC3180916A0590916B05A0916C052E
:10307000B0916D05860F971FA11DB11D80934A0465
:1030800090934B04A0934C04B0934D04D8CC409142
:103090001705509118056091190570911A058091D6
:1030A0006A0590916B05A0916C05B0916D05841730
:1030B0009507A607B70708F4C2CC809106018111D5
:1030C00053C050910401550F550F5983052F0C5FC4
:1030D000D02E043410F063E4D62E8981E82EF12C32
:1030E00023E0829FF0011124E25BFB4FFA83E98326
:1030F000ED1408F478C041E04D83033408F01D82DC
:10310000033408F46DCE46EC50E061E574E08EE4E3
:1031100094E00E9478320E944B0881FF7EC010929A
:10312000140510921505109216050E94CD0A6983A8
:103130007A838B839C8380916A0590916B05A09123
:103140006C05B0916D0529813A814B815C81820FBC
:10315000931FA41FB51F8093170590931805A09384
:103160001905B0931A053CCE40E060E080E00E9473
:10317000AF0B4EE4C42E44E0D42EF12CE12C5FE7DB
:10318000B52E0E944B0881FF0FC0F60110821182FC
:103190001282FFEFEF1AFF0A23E0C20ED11C33E4C4
:1031A000E316F10471F78DCF0E944B08082F0E949F
:1031B0004B08782F76952B2D720F08F47FEFA7011F
:1031C000440F551F4E0D5F1D425B5B4F5A83498371
:1031D000602F80913A060E948007E981FA8160831E
:1031E00071838283D6CFF701E85FFD4F8081909194
:1031F0000501892341F0E981FA81228140816181C1
:10320000C7010E94AD0B29813A812D5F3F4F3A8360
:1032100029833FEFE31AF30A6BCF0E944B0889839F
:103220000E944B08782F76952FE7720F08F47FEFF6
:10323000698180913A060E9480076093140570931B
:1032400015058093160571CF40916605509167056D
:10325000609168057091690580916A0590916B0590
:10326000A0916C05B0916D0584179507A607B70767
:1032700008F4E5CB80910601882329F040E060E066
:1032800080E00E94AF0B6091380670913906809102
:103290003A060E948007062F772E682E4BE155E0F4
:1032A0005A83498397E3E92E91E0F92E2EE0A22E6E
:1032B000B12C4701C980DA80512CF60121916F01B0
:1032C000F40181914F0190E0222309F482C0262D60
:1032D000402F672D0E94AD0BF601808131978083CE
:1032E0005394F6E05F12E9CF65018EE0582E960107
:1032F000255E3A4F4901F601E95CFE4F808190E07E
:10330000F9012081222309F468C0262D402F672D62
:103310000E94AD0BF40131978081F40180835A94AF
:10332000F1E0CF1AD10827E05212E1CFF7018781EF
:1033300090E0E981FA812781222309F452C0262DE9
:10334000402F672D0E94AD0BF701868190E0E98147
:10335000FA812681222309F448C0262D402F672DAB
:103360000E94AD0B0E944B08837091E009F090E041
:10337000E981FA81968397833F96FA83E983FFE098
:10338000EF0EF11C2FE0A20EB11C39E5A316B1041B
:1033900009F08FCF0E94CD0A69837A838B839C8347
:1033A00080916A0590916B05A0916C05B0916D05B7
:1033B00029813A814B815C81820F931FA41FB51F25
:1033C0008093660590936705A0936805B09369059F
:1033D00036CB20E040E060E07DCF20E040E060E0E0
:1033E00097CF20E040E060E0ADCF20E040E060E03B
:1033F000B7CF8DEE9AE00E94460FA2CC84EF9AE000
:10340000FACF20916E0531E0231B08F420E06AEF2B
:103410007AE0822F0E94C40F93CC6AEF7AE080E0BA
:10342000F9CF20916E0531E0231B08F420E064E120
:103430007BE0EFCF64E17BE0F2CF20916E0531E0DD
:10344000231B08F420E06CE47BE0E3CF6CE47BE03A
:10345000E6CF20916E0531E0231B08F420E06EE7F3
:103460007BE0D7CF6EE77BE0DACF20916E0531E0CD
:10347000231B08F420E066E97BE0CBCF66E97BE024
:10348000CECF31E03D83ACCC4F925F926F927F9272
:103490008F929F92AF92BF92CF92DF92EF92FF9264
:1034A000CF93C0904204D0904304E0904404F09045
:1034B00045048FB7F89440904604509047046090BC
:1034C0004804709049048FBF530142018C189D0835
:1034D000AE08BF080E94400C6093420470934304FE
:1034E0008093440490934504A0919A05EAE9F5E09D
:1034F0004A2F50E02FEFC20ED21EE11CF11CC4185F
:10350000D508E608F708A5132EC040939A05209128
:103510009805C0E0211108C020913706C22FC37062
:1035200019F0C22FC695C69520911801223009F4D2
:103530005AC060F521113AC01092040160936A05E7
:1035400070936B0580936C0590936D0589E2EAE9B1
:10355000F5E0AEE6B5E001900D928A95E1F781E0E5
:103560008093180115C0218D328D2901712C612C99
:10357000C414D504E604F70420F441505F5F32968A
:10358000C2CF280D391D328F218FF8CF2330B1F1F2
:10359000CF91FF90EF90DF90CF90BF90AF909F9032
:1035A0008F907F906F905F904F9008958C2F0E9426
:1035B000DD14CC2369F30E94D20B81FFE9CF2FEFFA
:1035C0004FEF6FEF8EE190E0CF91FF90EF90DF90A3
:1035D000CF90BF90AF909F908F907F906F905F90B3
:1035E0004F900C94AD0BC0931601809137068370F9
:1035F000809315010E94061D83E0B2CF80913606AC
:10360000882351F046E050E06CE170E087E396E0FB
:103610000E94AF321092360640916A0550916B05B8
:1036200060916C0570916D052FB7F89480914604F8
:1036300090914704A0914804B09149042FBF841B86
:10364000950BA60BB70B4A97A105B10508F4A0CFBF
:10365000109218019DCFFF920F931F93CF93DF938A
:1036600000D000D0CDB7DEB7FC01F62E042F122F0C
:103670008334910570F5EE0FFF1FEE0FFF1FBF01A2
:103680006F537B4F44E050E0CE0101960E945932C7
:1036900089818370282F30E04A8150E9859FC001DD
:1036A000112486509D4FFC01E40FF11DB497F08268
:1036B0004B81FC01E40FF11DB49700834C81840F12
:1036C000911DFC01B4971083F901E65EFB4F81E088
:1036D00080830F900F900F900F90DF91CF911F91EB
:1036E0000F91FF900895FF920F931F93CF93DF9355
:1036F000182F062FF42ED0E0C0E02F2D402F612F81
:10370000CE010E942B1B2196C334D105B1F7DF9166
:10371000CF911F910F91FF900895E6EEF2E0608344
:10372000418324E630E042E050E0BF01880F0C9472
:103730007F31CF93DF93C82F4BE06DEF0E948D1B3D
:1037400040E06AE08C2F0E948D1B8FE39CE901977B
:10375000F1F700C0000040E060E08C2F0E948D1B5C
:1037600040E061E08C2F0E948D1B40E066E08C2FD2
:103770000E948D1B40E06DEF8C2F0E948D1BD0E0CE
:1037800040E06D2F8C2F0E948D1BDF5FD231C1F77F
:1037900040E06D2F8C2F0E948D1BDF5FD432C1F76C
:1037A00040E06D2F8C2F0E948D1BDF5FD43BC1F753
:1037B0004BE06DEF8C2F0E948D1B41E06AE08C2F57
:1037C0000E948D1B40E06DEF8C2FDF91CF910C9408
:1037D0008D1BEF92FF920F931F93CF93DF93E82EF1
:1037E000062F10E0045E1B4FF8018081882381F0D2
:1037F000F2E16F9FE0011124C25EDB4FF12C499191
:103800006F2D8E2D0E948D1BF39482E1F812F7CF5D
:10381000F8011082DF91CF911F910F91FF90EF90EF
:1038200008954F925F926F927F928F929F92AF9284
:10383000BF92CF92DF92EF92FF920F931F93CF939D
:10384000DF9300D000D0CDB7DEB70E94D13084E73F
:103850000E94991B87E70E94991B01EC14E07DEC04
:10386000472E75E0572EE2E17E2EF8E0CF2ED12CC8
:10387000EE24E394F12C6624639444E050E0B80114
:10388000CE0101960E9459326A8170E0CB01849783
:103890002B81422F4452550B4A01EC81E452FF0B1D
:1038A0002981237030E0AC0197FF02C0495F5F4F70
:1038B00063E0559547956A95E1F7729E5001739EB6
:1038C000B00C1124B501625E7B4F5B01A40EB11CEC
:1038D000B6010E94C031A70101C0440F8A95EAF7E2
:1038E000D5018C91842B8C93C40197FC079653E0EF
:1038F000959587955A95E1F7729E5001739EB00C8D
:103900001124A501425E5B4F5A01A80EB11CC401EF
:10391000B6010E94C031A70101C0440F8A95EAF7A1
:10392000D5018C91842B8C93CF01F7FD079643E052
:10393000959587954A95E1F7729E5001739EB00C5C
:103940001124A501425E5B4F5A01A80EB11CCF01A4
:10395000B6010E94C031A70101C0440F8A95EAF761
:10396000D5018C91842B8C93245E3B4FF9016082AE
:103970000C5F1F4F4016510609F07FCF60E084E7CF
:103980000E94E91B61E087E70F900F900F900F9066
:10399000DF91CF911F910F91FF90EF90DF90CF902B
:1039A000BF90AF909F908F907F906F905F904F905F
:1039B0000C94E91BEF92FF921F93CF93DF937B014F
:1039C000182F110FD0E0C0E08C2F8C5D8093E602A1
:1039D000D701AC0FBD1FE7EEF2E08D91819382E03D
:1039E000E73FF807D1F724E630E041E150E066EE2A
:1039F00072E0812F0E947F316096C039D10521F796
:103A0000DF91CF911F91FF90EF90089580911A045C
:103A1000882329F06AEF72E084E70E94DA1C109292
:103A20001A0480911B04882329F06AE873E087E771
:103A30000E94DA1C10921B0408951F921FB61F9259
:103A400011248F939F93AF93BF938091970581111A
:103A500013C08091460490914704A0914804B0910E
:103A600049044196A11DB11D8093460490934704DB
:103A7000A0934804B0934904BF91AF919F918F9157
:103A80001F901FBE1F9018952FB7F8948091460481
:103A900090914704A0914804B09149042FBF089524
:103AA0000E94441D2091300630913106232B21F0D5
:103AB0008093D0059093D105209132063091330642
:103AC000232B21F08093CE059093CF05E091EB0559
:103AD000F091EC05309749F082E080932E06048047
:103AE000F581E02D8EE296E009940895CF93C82FDA
:103AF000882309F46BC08CEF8C0F813AA8F5809174
:103B00001701882301F18091420687FF1CC0EC2F2A
:103B1000E695E695E695F0E0E057FD4F828190E06E
:103B20004C2F477021E030E002C0220F331F4A952E
:103B3000E2F782239323892B79F08C2F0E945A0479
:103B40000E94761309C0E2E9F2E08191C817A9F357
:103B500022E0E839F207C9F76C2F80E992E00E9471
:103B60000A0CCF910C94761380E28C0F883068F4A5
:103B7000C77021E030E001C0220FCA95EAF78091BA
:103B80003D06822B80933D06ECCF8BE58C0F833076
:103B900038F42C2F2452330BC901CF910C94DE0B37
:103BA000E8E5EC0FE73150F4F0E0EE0FFF1FE15ACB
:103BB000FD4F80819181CF910C94F40BC03F30F088
:103BC0008C2F0E94BE06CF910C94501DCF9108956A
:103BD000882361F19CEF980F913A20F40E945A04D7
:103BE0000C94761390E2980F983050F4877091E01F
:103BF00001C0990F8A95EAF7892F0E948704F0CFB8
:103C00009BE5980F933020F490E080E00C94DE0B5D
:103C100098E5980F973120F490E080E00C94F40B35
:103C2000803F20F00E9407070C94501D08950F93C9
:103C30001F93CF93C82F10E000E0893311F400E503
:103C400010E08C2F0E94761D0115110531F48C2F88
:103C5000CF911F910F910C94E81D8FE99FE0019780
:103C6000F1F700C0000001501109EECF90E080E0B4
:103C70000E94DE0B90E080E00E94F40B109244065C
:103C80000E94761386E0EEE2F6E0DF011D928A954F
:103C9000E9F710922D0610922C0610922B060C9428
:103CA000501D10923D0680911701E2E9F2E0882351
:103CB00059F08091420687FF07C08EE1DF011D9217
:103CC0008A95E9F70C94361E86E0F8CF1F93CF93C0
:103CD000DF93CDB7DEB7AA970FB6F894DEBF0FBE5D
:103CE000CDBF86EB92E0FC0101962091F10020838C
:103CF00022E08E3B9207B9F78091B702893009F430
:103D000056C0C8F4823009F4B3C0833009F482C0CD
:103D1000813071F18091E80083FF84C28091B60206
:103D20009091B7029A3008F07DC2E92FF0E0ED578C
:103D3000FC4C0C94D4318A3009F489C08B3051F793
:103D40008091B602813231F78091BA029091BB0224
:103D5000892B01F78091E800877F8093E8000E941B
:103D6000BE0C8091B802809317010E94511ED2CFE1
:103D70008091B602813A71F68091E800877F809346
:103D8000E8008091BA029091BB02892B61F460E255
:103D900081EC92E070E00E94640C8091E8008B77E7
:103DA0008093E800B7CF60E090E080E0F3CF8091AF
:103DB000B602813209F0AECF8091BA029091BB0277
:103DC0008D7F892B09F0A6CF8091E800877F8093B3
:103DD000E8008091E80082FF18C09091F300809184
:103DE000F200029731F48091F100813011F08630B9
:103DF00021F48091F1008093E1028091E8008B77BB
:103E00008093E8000E94BE0C85CF8091D30581117C
:103E1000E0CF80CF8091B602813A09F07BCF8091CC
:103E2000BA029091BB02892B09F074CF8091E8000F
:103E3000877F8093E8008091E80080FFFCCF80912D
:103E400017018093F1008091E8008E77D9CF80919F
:103E5000B602813209F05ECF8091E800877F8093BF
:103E6000E8000E94BE0C8091B9028093B20252CF4A
:103E70008091B602813A09F04DCF8091E800877FAA
:103E80008093E8008091E80080FFFCCF8091B2022F
:103E9000D8CF803899F0823809F0C4C18091BA0235
:103EA0008F70873008F0BEC18093E9008091EB00ED
:103EB00085FB882780F91092E90006C08091B30243
:103EC00090919905911182609091E800977F90936D
:103ED000E8008093F1001092F1008091E8008E7765
:103EE0009DC1882309F48BC1823009F09BC1809168
:103EF000B80281118EC18091BA028F702FEF280F06
:103F0000263008F08FC18093E9002091EB0020FF5C
:103F100080C1933031F48091EB0080628093EB009C
:103F200078C19091EB0090619093EB0021E030E03C
:103F300001C0220F8A95EAF72093EA001092EA0066
:103F40008091EB008860EACF81116CC11091B802BA
:103F50001F778091E3008078812B8093E30080912C
:103F6000E800877F8093E8000E94BE0C8091E80003
:103F700080FFFCCF8091E30080688093E30082E0C3
:103F8000111183E08093D3054DC18058823008F031
:103F900049C14091B8025091B9024C3D83E05807A5
:103FA00099F583E08A838AE289834FB7F894DE012A
:103FB000139620E03EE051E2E32FF0E050935700EB
:103FC000849120FF03C082958F703F5F8F708A308D
:103FD000C8F0895C90E08D939D932F5F243161F749
:103FE0004FBF8091E800877F8093E8006AE270E02D
:103FF000CE0101960E94640C8091E8008B7780933B
:10400000E80010C1805DE6CF8091BA029091BB02BA
:10401000252F33272330310509F44AC078F52130A4
:10402000310509F479C08BE590E0E4ECF1E0223051
:10403000310509F0F7C02091E800277F2093E800C0
:104040002091BC023091BD028217930708F49C01B5
:1040500040E02115310509F064C0411162C0809132
:10406000E80082FDC9CF8091D305882329F28530ED
:1040700019F28091E80083FFF2CFBECF21323105E3
:1040800009F43BC02232310509F0CCC083309105E0
:1040900008F0C8C0FC01EE0FFF1FED5DFE4F019060
:1040A000F081E02D805E9E4FDC018C9190E011C08C
:1040B000CA019927413089F082309105B1F0892BEE
:1040C00009F0B0C0E5E6F2E0E4918E2F90E0E5E67D
:1040D000F2E0009709F4A6C0AECFE3E5F2E0E49188
:1040E0008E2F90E0E3E5F2E0F4CFE1E3F2E0E4913B
:1040F0008E2F90E0E1E3F2E0ECCF8330910508F001
:1041000091C0880F991FFC01E75DFE4F0190F0817F
:10411000E02D89E090E08FCF82E190E0EFE1F2E0E6
:104120008ACF8091D305882309F466CF853009F4BE
:1041300063CF8091E80083FD5FCF8091E80082FD2E
:104140008ECF8091E80080FF84CF9091F300809122
:10415000F2002115310519F08830910550F041E049
:10416000089709F040E08091E8008E778093E8009E
:1041700070CF44914093F10031962150310901965E
:10418000E8CF803809F04EC08091E800877F8093A7
:10419000E8008091B4028093F1009FCE811142C06B
:1041A0001091B8021230F0F58091E800877F80937B
:1041B000E8001093B4020E94BE0C112311F084E0B9
:1041C00005C08091E30087FDFACF81E08093D3059D
:1041D00042E061EC81E00E94BF1042E261EC84E0C9
:1041E0000E94BF1042E261EC82E00E94BF1042E2F6
:1041F00060EC83E00E94BF108091D30513C08091D2
:10420000B802813079F481E0933009F080E0809346
:1042100099051092E9008091E800877F8093E8007B
:104220000E94BE0C8091E80083FF0AC08091E800E4
:10423000877F8093E8008091EB0080628093EB00A1
:10424000AA960FB6F894DEBF0FBECDBFDF91CF9117
:104250001F91089580933F060C94361E809340066C
:104260000C94361E21E030E001C0220F8A95EAF757
:1042700080914006822B0C942E2121E030E001C079
:10428000220F8A95EAF720958091400682230C94AC
:104290002E21909141068095892380934106282FF5
:1042A000277091F4282F082E000C330B9217130659
:1042B00059F09091430692FD07C0859585958595A7
:1042C0000E943D21109241060895CF93C09143066C
:1042D000C2FB992790F9981799F080FBC2F9C09317
:1042E00043066091420684E090E00E94BF326C2F4A
:1042F00082E290E00E94BF3282E0CF910C9449218B
:10430000CF91089580914006982F9670963019F4B9
:1043100088600C942E21877FFCCF9C014FB7F894C6
:104320008091460490914704A0914804B0914904BB
:104330004FBF821B930B08954F925F926F927F92B3
:104340008F929F92AF92BF92CF92DF92EF92FF92A5
:104350000F931F93CF93DF93CDB7DEB72A970FB696
:10436000F894DEBF0FBECDBFFE0131968AE0DF01BB
:104370001D928A95E9F79BE4E92E92E0F92E8F01D0
:1043800020E5622E22E0722E2F01AA24A394B12CE4
:104390004FE5842E42E0942EF70181917F018F3FFB
:1043A00009F445C0F894E82FE295EF70F0E021A100
:1043B0008F70A50102C0440F551F8A95E2F7CA010C
:1043C000922F982B91A392A18095892382A3789410
:1043D00000C0E0E5F2E021E030E0D12CC12C4191B9
:1043E0004F3F09F45DC0A42FA295AF70A05EB0E06E
:1043F0008C9190E04F7002C0959587954A95E2F7B1
:1044000080FD4EC0C901C82AD92A220F331F8E163B
:104410009F0629F7F701319780818F3F11F00E94A5
:10442000630650EA5A95F1F7D801CD92DC920E5FFF
:104430001F4F6E147F0409F0AFCF4AE050E0B20185
:1044400081EE95E00E9462329C0111E0892B09F413
:1044500010E0232B41F18AE0F201A1EEB5E00190DA
:104460000D928A95E1F781E08093D6050E94441D64
:104470009093D5058093D4058091D4059091D5056E
:104480000E948D21039798F08AE0E1EEF5E0A7ED18
:10449000B5E001900D928A95E1F71092D60507C01C
:1044A00080E090E0B0CF8091D6058111E5CF812FDB
:1044B0002A960FB6F894DEBF0FBECDBFDF91CF9125
:1044C0001F910F91FF90EF90DF90CF90BF90AF9032
:1044D0009F908F907F906F905F904F900895FF9284
:1044E0000F931F93CF93DF93C62FD42F122F8823C0
:1044F000A9F0609334060E94441D9093B10280930A
:10450000B002C77081E001C0880FCA95EAF7DF9159
:10451000CF911F910F91FF900C94CB138091340693
:10452000681334C08091B0029091B1020E948D2135
:10453000883C910558F500E20D0FCD17A9F0C77022
:10454000FF24F3948F2D01C0880FCA95EAF70E94CB
:10455000D513083048F48D2F877001C0FF0C8A9561
:10456000EAF78F2D0E94CB13812F0E94171E08306F
:10457000A0F4D77081E001C0880FDA95EAF7DF91E7
:10458000CF911F910F91FF900C94D513C77081E0CC
:1045900001C0880FCA95EAF7F2CFDF91CF911F9142
:1045A0000F91FF9008953F924F925F926F927F928A
:1045B0008F929F92AF92BF92CF92DF92EF92FF9233
:1045C0000F931F93CF93DF9300D000D0CDB7DEB70A
:1045D0007C01FC019081818123813481232B21F096
:1045E00089238F3F09F073C50F900F900F900F90A4
:1045F000DF91CF911F910F91FF90EF90DF90CF90BF
:10460000BF90AF909F908F907F906F905F904F90F2
:104610003F900895980122513F452031310508F01F
:10462000FCC48FEF93E00E94A13202514FE7842E29
:1046300042E0942E882389F1809141068770A1F28F
:10464000F7018281882381F28091430682FDCCCFDD
:1046500082E00F900F900F900F90DF91CF911F91FC
:104660000F91FF90EF90DF90CF90BF90AF909F9011
:104670008F907F906F905F904F903F900C94492166
:104680008114F4E09F06C1F2C4010E94A13281119D
:1046900001C001502FEF821A920A0111F1CF8091CF
:1046A0001C0190911D01A0911E01B0911F018983F1
:1046B0009A83AB83BC83442443943AE0332E840131
:1046C0000F5F1F4FC4010E94A13289831A82882381
:1046D00009F4B2CF9FEF980F9330F8F48A834982A0
:1046E00032E0830E911CC8010E94A1328B83882383
:1046F00009F4A2CF8E010F5F1F4FF8012081222302
:10470000F1F2213009F044C091818281913039F475
:104710000E5F1F4F0E94171E08C04801EBCF92305A
:1047200039F40E5F1F4F0E94761D0F5F1F4FE5CFBC
:10473000933029F40E5F1F4F0E94E81DF6CF94308E
:1047400019F00F5F1F4FF1CF0E5F1F4F20E030E0D9
:10475000A8014F5F5F4F8053990B8A30910560F03D
:104760002115310511F38FE99FE00197F1F700C0A2
:10477000000021503109F4CF329EB001339E700DFC
:1047800011249C01260F371FF80181818A01E0CF97
:10479000E22FF0E0E350F94F5490822F86958695F2
:1047A000869590E0FC01E351F94FE4912770F0E029
:1047B000022E02C0F595E7950A94E2F73F0131E039
:1047C00063227724FC01E352F94FA490B12C022E0E
:1047D00002C0B594A7940A94E2F7E1E0AE22BB24AC
:1047E000FC01E353F94FC490D12C02C0D594C79477
:1047F0002A95E2F7F1E0CF22DD246114710419F06B
:1048000081EE0E94761DA114B10419F086EE0E947B
:10481000761D852D0E94171EAB2819F086EE0E948A
:10482000E81D672819F081EE0E94E81DCD2809F4E3
:104830007CCF8CE26FCF81E00E9432210E948221E6
:10484000FBCE81E00E943D21F9CF82E0F5CF053F0C
:104850002CE51207D1F027E245EE66EE063F3CE577
:10486000130741F027E245EE64EE043F9CE519078B
:1048700009F0F8C30E946F22DFCE27E245EE65EE15
:10488000F9CF26E241EE60EEF5CF26E241EE62EE90
:10489000F1CF98012A5F3C452930310508F4F7C370
:1048A00006313CE5130709F42CC405C0053A8DE533
:1048B000180709F4ECC30A35FDE51F0709F07AC1B2
:1048C00081E096C1F801E350FC4580914206816089
:1048D000E331F10550F5E357FC4C0C94D43103302F
:1048E000FDE51F0778F40A3F2CE5120708F4DFC343
:1048F000F801EB5FFC45E830F10510F5E056FC4CA3
:104900000C94D43101363DE5130709F496C0053AFD
:104910001D4509F0CCC390914206892F8E7F90FFF0
:10492000816003C080914206826080934206BFC3CB
:10493000809142068460F9CF809142068860F5CF6D
:1049400080914306816080934306B1C38091430602
:104950008260F9CF809142068061E7CF8091420664
:104960008062E3CF809142068064DFCF0E94511EB7
:10497000809142068068D9CF809142068C60D5CF65
:10498000809143068360DFCF809142068E7FCDCF3A
:10499000809142068D7FC9CF809142068B7FC5CF23
:1049A00080914206877FC1CF809143068E7FCBCF17
:1049B000809143068D7FC7CF809142068F7EB5CF11
:1049C000809142068F7DB1CF809142068F7BADCF23
:1049D0000E94511E809142068F77A7CF8091420698
:1049E000837FA3CF809143068C7FADCF8091420619
:1049F00082FB992790F921E0922790FB82F990FBA6
:104A000083F993CF80914306982F909591708E7F74
:104A1000892B90FB81F997CF0E94511E90914206FD
:104A2000892F97FB87F9805880CF61E08EE090E076
:104A30000E94BF323CC360E0F9CF90914206892FBB
:104A40008F7E94FF806171CF80913506811104C003
:104A500089E20E945A0468C385E3FBCF80913D063A
:104A60008272063D9CE5190778F4023CECE51E07CE
:104A700078F0F801E35CFC45E331F10508F04EC045
:104A8000E855FC4C0C94D4310D351D4509F4D4CDBA
:104A9000F7018281C080D180882309F4BBC0C601A0
:104AA0000E94FA12182F682FC6010E94F903B6015E
:104AB000812F0E94ED120E94D8048C01F701928090
:104AC000858082942FE08222809141068770C1F018
:104AD000C92C9920B1F0812F807F803421F080E2B1
:104AE000800F883068F08091430682FD09C082E023
:104AF0000E944921809141068770CC24C394811182
:104B0000C12C812F82958F70A82EB12C8C3008F08B
:104B1000EEC0F501E554FC4C0C94D431809137067D
:104B200091E089278093370610921801809136060C
:104B300081608093360680CD44EB50E16AEA70E1F3
:104B40000E94CD0B79CD4AEA50E164EB70E1F8CFD9
:104B500046E45DE06DE37DE0F3CF4DE35DE066E4C8
:104B60007DE0EECF4BE55DE06FE47DE0E9CF4FE423
:104B70005DE06BE57DE0E4CF43E75DE067E67DE087
:104B8000DFCF47E65DE063E77DE0DACF4FEB5BE048
:104B900061EB7BE0D5CF41EB5BE06FEB7BE0D0CF0F
:104BA00081E00E948D1048CD85E0FBCF8DE0F9CFEC
:104BB00082E1F7CF0B352DE5120758F401153CE5DE
:104BC0001307C9F00E3D1C4509F062CF0E94DC13AB
:104BD00033CD0B359DE51907D9F00C351D4509F08E
:104BE00057CF8091430682FB882780F991E089277F
:104BF0000E9465214DCF0E94511EFFEF24E33CE04F
:104C0000F15020403040E1F700C000000E945011F8
:104C100080E0EECFC6010E942704182F48CFF12F65
:104C2000FF70DF2E107F19F0D29490EFD9229920D7
:104C3000B9F0DD2069F080E2800F883010F00111BA
:104C400009C080913D068D2980933D060E94761310
:104C5000802F4BC0809144068D2980934406F6CF67
:104C6000802F0E94E81DDD2009F441C080E2800F02
:104C7000883010F0011104C08D2D0E94870406C0F9
:104C8000D094809144068D21809344060E9476132F
:104C90002EC0212F2F70D22E107F103219F0D294F7
:104CA00080EFD822002381F0013009F482C09920DE
:104CB00009F48CC0882009F482C0F701858180FF47
:104CC000C7CF8F7085837BC02091430622FF4EC0E3
:104CD000992009F445C0DD2039F080913D068D29E9
:104CE00080933D060E94761380E00E94761D98E036
:104CF000A91AB108E4E0AE16B10410F40E94D20B78
:104D0000CC20A9F08091410680FD11C0F7011282EC
:104D10008595859585950E943221C7010E94D322F1
:104D2000809141068595859585950E943D2160E09D
:104D3000C7010F900F900F900F90DF91CF911F91AF
:104D40000F91FF90EF90DF90CF90BF90AF909F902A
:104D50008F907F906F905F904F903F900C942913AD
:104D600080E00E94E81DDD2011F286CF9920A1F09D
:104D700090913E068D2D892B811003C00E94CB138C
:104D8000B6CF31E08312FACF22FDB1CF981709F4E4
:104D9000AECF80933E06ABCF811006C00E948F0439
:104DA0008D2D0E94D513A3CF81E0881609F49FCFE3
:104DB000F5CF992031F095E0981508F498CF8D2D16
:104DC000DDCFE4E0E81508F492CFEACF882041F384
:104DD000093349F4FFEF27EE33E0F1502040304033
:104DE000E1F700C00000802F0E94E81D80CF812FD6
:104DF00086958695837061F0813009F078CFC8017F
:104E00009370911002C090E080E00E94F40B6FCF8D
:104E1000C8019370911002C090E080E00E94DE0B08
:104E200066CF802F992029F00E94BE060E94501D57
:104E30005ECF0E940707FACF812F8370A1F59110F2
:104E400056CF802F829586958770880F880F402FC8
:104E50004F70082E01C0440F0A94EAF7202F2071EA
:104E600004FF07C02FE030E001C0220F8A95EAF767
:104E70002095169516951370123081F0822F842B91
:104E8000133031F080913F06113029F0242B82231A
:104E90000E942A212CCF842B822BFACF242B8091A5
:104EA0003F068227F5CF992061F110FF20CF802F98
:104EB000829586958770880F880F402F4F70082E37
:104EC00001C0440F0A94EAF7202F207104FF07C0A5
:104ED0002FE030E001C0220F8A95EAF72095169561
:104EE00016951370123099F0822F842B133031F005
:104EF00080914006113041F0242B82230E942E2104
:104F0000F6CE11FFF4CED3CF842B822BF7CF242BF8
:104F1000809140068227F2CF1F70992029F0812FBF
:104F20000E943221802F2ACF802F0E94D513812FFB
:104F30000E943D21DCCE023F81F160F4003FB9F0D8
:104F4000013F81F0992009F458C0811081CE812F52
:104F50008F7127C0033F41F1043FA1F780914306C1
:104F600082FF2DC0812F8F71992011F31AC09920D3
:104F700079F084E0881508F4BACE1F7181E090E0E2
:104F800001C0880F1A95EAF7909140068927B6CF9D
:104F900095E0981508F4ABCEF0CF812F8F7191106A
:104FA000C7CF0E943221A3CE80E0992009F4A6CF7A
:104FB0001F7181E001C0880F1A95EAF79FCF9920F1
:104FC00089F01F71812F0E9432218091430682FD5A
:104FD00007C0E8E01E9FC001112483608093410652
:104FE000812FDFCF81E00E944921F1E0F81508F020
:104FF0007ECE82E00E9449217ACE882059F0093382
:1050000009F0F1CE2FEF37EE83E0215030408040A1
:10501000E1F7E7CE812F8F718BCF0031FFE51F07BE
:1050200009F409CC01312FE5120709F40ECC033F36
:105030002CE5120709F425CC08F009CC083D9CE5C5
:10504000190709F41ACC28E241E0093DECE51E07F6
:1050500009F415CC26E241EE61EE073DFCE51F07A1
:1050600009F408CC882309F447C0109234060136AD
:10507000EDE51E0761F008F019CC06312CE51207AA
:1050800008F007CC02303CE5130708F414CC0E946A
:10509000A012909343068093420606319CE51907BF
:1050A00008F01DCC0230ECE51E0708F00BCC609137
:1050B00042061091430684E090E00E94BF32612FC7
:1050C00082E290E00E94BF320E94511EB5CA61E0A8
:1050D000C7010E9429138C01F701828181119ACAAC
:1050E00000313FE5130709F4ACCB01319FE5190707
:1050F00009F09DCF82E0A6CB06312CE5120709F01E
:10510000ADCC90913D06882309F49ECC892F8A7AF4
:1051100091E009F490E09093350669E2811165E32E
:1051200080E992E00E940A0C0E94761385CA1F93C0
:10513000CF93DF9380917C06807FA9F480917906DC
:10514000882389F080914606C091450670917706C4
:1051500060917806A0917A06B0917B06D62FD7236E
:1051600016E0C81304C0DF91CF911F91089590E01D
:10517000109711F0DF3F19F401968770F2CF189F56
:105180009001199F300D1124F901E95BF94F41811C
:105190006413F2CF40814713EFCF42814111ECCF2E
:1051A000438154814A1B5B0B483C510528F7809191
:1051B0007C068F70806180937C06F901E45BF94F77
:1051C00080818F708061808387E796E00E94D32280
:1051D000DF91CF911F910C9450048F929F92AF92C8
:1051E000BF92DF92EF92FF920F931F93CF93DF93C3
:1051F000CDB7DEB72B970FB6F894DEBF0FBECDBF8D
:105200008C0185E0F801DE01179601900D928A95D8
:10521000E1F7F801E280A380B48087E7882E86E07A
:10522000982E909177068091780620917A06309199
:105230007B062115310529F0482F49234F3F09F0FE
:1052400028C1EE2009F433C1F801808191810E94C8
:105250005613F82E882309F42AC186E0F801A7E73F
:10526000B6E001900D928A95E1F70E94972821C03F
:10527000D0907C064D2D407F283C310508F0A8C019
:10528000F80121814111C3C0FE2C281325C0808163
:10529000891322C0E11020C08D2D8F708061809312
:1052A0007C0687E796E00E94D32280917C06F80175
:1052B00085838F2D2B960FB6F894DEBF0FBECDBF22
:1052C000DF91CF911F910F91FF90EF90DF90BF90F2
:1052D000AF909F908F9008953F81AB2829F0822F47
:1052E00083238F3F09F090C080E0F82FF170DF2E0C
:1052F000E09146064091450656E080FD1CC0EE2038
:10530000C1F280917C06816080937C06F12CD1CF24
:105310008E2F90E05E9FF0011124E95BF94F6181CF
:10532000261306C06081361303C06281E612E7CF00
:105330000196E82FE770E413EBCF8F8198850E94E8
:105340004813292F22952F70903260F0225F2F7022
:10535000223078F49F7051F0F8019581907F31F4FC
:10536000D12C0AC09F7011F08823D1F3805E883061
:10537000B8F3C8010E94D322FD2C9BCFF801808195
:1053800091810E945613882309F491C0EE2009F4FC
:105390008EC080917C06803270F08091770690916B
:1053A00078069A8389831B82BD82AC82DE82CE011D
:1053B00001960E94D32286E0F801A7E7B6E00190AB
:1053C0000D928A95E1F70E949728FF24F39471CFFC
:1053D000411132C087E796E00E94D32286E0F401B3
:1053E00011928A95E9F792CFF801808191810E940C
:1053F00056138111E0CF80917C06816080937C06FA
:10540000C8010E94D32255CF81E08E256ECF28138C
:10541000B5CFF80180818913B1CFE110AFCFD5822C
:10542000C8010E94D32286E0F801A7E7B6E0019008
:105430000D928A95E1F73DCFF801218182139ECF2D
:10544000F801808189139ACFE11098CFD582C801E5
:105450000E94D32286E0F40111928A95E9F729CFC0
:10546000F80121818213C0CFF80180818913BCCF5C
:1054700080917C0680FDD7CF982F907FA1F2858305
:10548000903F71F2982F907F905F8F70892B85836A
:10549000C7CFF0907906A501421B530B9A01F1107A
:1054A000E7CE283C3105B0F6FE2CE110D9CFC8017B
:1054B0000E94D3228ACF1F93CF93DF93CDB7DEB75D
:1054C00067970FB6F894DEBF0FBECDBF342F4B8B5E
:1054D000252F5C8B962F6D8B7E8B8F8B4E895F89F2
:1054E0006111109244061A8A3D872E879F87598B37
:1054F000488B86E0FE013D96DE01179601900D92E5
:105500008A95E1F7CE0107960E94ED28882389F05D
:1055100016E08091460690914506891349C067962A
:105520000FB6F894DEBF0FBECDBFDF91CF911F91B4
:10553000089586E0FE013796DE01119601900D92E6
:105540008A95E1F79F81888520914506409146061E
:105550006A857B85672BE1F289238F3FC9F230E0B2
:10556000C9010196877099274817190671F40E949E
:10557000511E109245061092460686E0E7E7F6E0D7
:10558000DF011D928A95E9F7C3CF96E0929FD00183
:10559000939FB00D1124A95BB94FFE013196019084
:1055A0000D929A95E1F7809345060E945004B0CF82
:1055B000819FC0011124895B994F0E94ED288823A7
:1055C00009F4ADCF8091460690E001968770992747
:1055D000809346069ECFCDB7DEB7A5970FB6F89459
:1055E000DEBF0FBECDBF84B7877F84BF0FB6F894F0
:1055F000A89580916000886180936000109260009F
:105600000FBE80E890E00FB6F8948093610090930D
:1056100061000FBE85B7806885BF85B7806885BF8C
:1056200081E696E090938F0280938E020E940E0D89
:105630000E94EF108091E20084608093E2007894F1
:105640008091D305882399F08091E9001091EC00B6
:105650001795112717958F70182B1092E9008091DC
:10566000E80083FD0E94661E1F701093E90082E02F
:1056700084BD93E095BD9AEF97BD80936E000E9424
:10568000AE12811102C00E9491120BE412E0E0E51B
:10569000EE2EE2E0FE2ED8018D918D018F3F11F0AC
:1056A0000E946306E016F106B1F700E512E07FE51F
:1056B000E72E72E0F72EF80181918F018F3F11F0F4
:1056C0000E946306E016F106B1F78AE0E7EDF5E027
:1056D000DF01282F1D922A95E9F7E1EEF5E0DF01C1
:1056E0001D928A95E9F70E944614811102C00E941A
:1056F000DC1382E090E00E94A1328093C3050E94F7
:10570000A01290934306809342060E949C21EFEBE7
:10571000FDE53197F1F700C000000E949C218091C7
:10572000D70580FF08C06FEF7FEF90E080E00E9418
:10573000DD320E94501183E090E00E94A1320E946D
:105740002A210E94111C10926E0540E150E06FEF7B
:1057500070E087E895E00E948A3210929A0540E155
:1057600050E06FEF70E083EB95E00E948A320E9478
:105770004614811104C00E94DC130E94511446E0BB
:1057800050E06CE170E087E396E00E949132109265
:105790003606809137068C7F11F40E94511489E0FF
:1057A00091E09093EC058093EB0548E1242E312C99
:1057B000BB24B39451EE452E55E0552E68E0662E7D
:1057C000712C8091D305853089F420E4F22E33E0EA
:1057D000E32E00E112E18091D305853009F4A0C0E9
:1057E0000E94511E0E94D20B109298050E949C218B
:1057F00081110E94400C97EDC92E95E0D92EE4EC62
:10580000F5E0D60110E000E0602FED90FD902191D1
:1058100031912E153F0509F4F6C12E253F25A12C07
:1058200088248394912CA90148215921452B09F4FE
:10583000E4C1A9826A83E820F92081E0E114F1043F
:1058400009F480E08B830E94441D8160782F9D8342
:105850008C8349815A816B81892F0E945B2AF801D0
:10586000EE0FFF1FEC53FA4F808191818825992517
:1058700091838083EF2871F08FE0809FF001819FFA
:10588000F00D1124E95CFE4FEA0DF11D80818F3F80
:1058900009F094C0A12C0A2D10E080919A05800F88
:1058A000912F911D09975CF17301E01AF10AB8017B
:1058B00065567A4FA7018BE995E00E946F32B801D7
:1058C0006D557A4FA70183EA95E00E946F32A701D8
:1058D000440F551FB801660F771F6D547A4F83EB45
:1058E00095E00E946F32B80165557A4FA7018BEAA7
:1058F00095E00E946F3288E08A1980939A05809122
:105900009A0590E0EDA1AE2FB0E09D01220F331F6C
:105910002E573E4FAA0FBB1FBD016D577E4F67C06C
:105920008091D305843009F437C00E94441A8091D5
:10593000980581110DC00E94DD141092160180910E
:1059400037068370809315010E94061DE0921801AE
:10595000F1E0F0939805109297050FB6F894A8958A
:10596000209260000FBEF092600083B7817F846058
:1059700083BF83B7816083BF7894889583B78E7F18
:1059800083BF0FB6F894A8958091600088618093DA
:105990006000109260000FBE80919905882309F481
:1059A0001ACF0E949C21E7EDF5E081919191892B1E
:1059B00009F089C24E165F06C1F70DCF8DA3AA2448
:1059C000A39469CF90E0FC01E656FA4FD9015C91AF
:1059D0005183DB015C915187BDA1B18B880F991F69
:1059E000FC01E656FA4F128E118E842F91E041E0B1
:1059F000480F9A1538F380939A050E94441A86E05E
:105A0000EEE2F6E0DE01119601900D928A95E1F743
:105A1000F0903006E0903106109132060091330686
:105A20001092300610923106109232061092330610
:105A30008F2D8E2909F448C08091D0059091D10511
:105A40000E948D219C0180912D06882309F45FC25C
:105A500025313105C8F18F3F19F08F5F80932D06F6
:105A6000FF2059F00E947C069FEF1F140CF491E078
:105A7000899F802D112480933006EE2059F00E94DA
:105A80007C069FEF1E140CF491E0899F802D112459
:105A900080933106309130063323B1F020913106E6
:105AA000222391F055EB3503C0011124992309F409
:105AB000C1C09093300645EB240390011124332399
:105AC00009F4BBC030933106812F802B09F448C004
:105AD0008091CE059091CF050E948D219C018091EF
